{
  "contractName": "NativeSuperToken",
  "abi": [
    {
      "inputs": [],
      "name": "Initialized",
      "type": "error"
    },
    {
      "inputs": [],
      "name": "ZeroAddress",
      "type": "error"
    },
    {
      "stateMutability": "payable",
      "type": "fallback",
      "payable": true
    },
    {
      "inputs": [
        {
          "internalType": "address",
          "name": "initialAddress",
          "type": "address"
        }
      ],
      "name": "initializeProxy",
      "outputs": [],
      "stateMutability": "nonpayable",
      "type": "function"
    },
    {
      "stateMutability": "payable",
      "type": "receive",
      "payable": true
    },
    {
      "inputs": [
        {
          "internalType": "string",
          "name": "name",
          "type": "string"
        },
        {
          "internalType": "string",
          "name": "symbol",
          "type": "string"
        },
        {
          "internalType": "address",
          "name": "factory",
          "type": "address"
        },
        {
          "internalType": "address",
          "name": "receiver",
          "type": "address"
        },
        {
          "internalType": "uint256",
          "name": "initialSupply",
          "type": "uint256"
        }
      ],
      "name": "initialize",
      "outputs": [],
      "stateMutability": "nonpayable",
      "type": "function"
    }
  ],
  "bytecode": "0x608060405234801561001057600080fd5b506108d1806100206000396000f3fe60806040526004361061002d5760003560e01c80634a0687ef14610046578063c9aba0aa1461006f5761003c565b3661003c5761003a610098565b005b610044610098565b005b34801561005257600080fd5b5061006d600480360381019061006891906103f1565b6100b2565b005b34801561007b57600080fd5b506100966004803603810190610091919061059a565b6101ab565b005b6100a06101d7565b6100b06100ab6101d9565b610202565b565b600073ffffffffffffffffffffffffffffffffffffffff168173ffffffffffffffffffffffffffffffffffffffff1603610118576040517fd92e233d00000000000000000000000000000000000000000000000000000000815260040160405180910390fd5b600073ffffffffffffffffffffffffffffffffffffffff166101386101d9565b73ffffffffffffffffffffffffffffffffffffffff1614610185576040517f5daa87a000000000000000000000000000000000000000000000000000000000815260040160405180910390fd5b807f360894a13ba1a3210667c828492db98dca3e2076cc3735a920a3ca505d382bbc5550565b6101b6858585610228565b6101d082826040518060200160405280600081525061030b565b5050505050565b565b60007f360894a13ba1a3210667c828492db98dca3e2076cc3735a920a3ca505d382bbc54905090565b3660008037600080366000845af43d6000803e8060008114610223573d6000f35b3d6000fd5b8073ffffffffffffffffffffffffffffffffffffffff1663d412d344306040518263ffffffff1660e01b8152600401610261919061065c565b600060405180830381600087803b15801561027b57600080fd5b505af115801561028f573d6000803e3d6000fd5b505050503073ffffffffffffffffffffffffffffffffffffffff166342fe09806000601286866040518563ffffffff1660e01b81526004016102d494939291906107a6565b600060405180830381600087803b1580156102ee57600080fd5b505af1158015610302573d6000803e3d6000fd5b50505050505050565b3073ffffffffffffffffffffffffffffffffffffffff1663c68d42838484846040518463ffffffff1660e01b81526004016103489392919061085d565b600060405180830381600087803b15801561036257600080fd5b505af1158015610376573d6000803e3d6000fd5b50505050505050565b6000604051905090565b600080fd5b600080fd5b600073ffffffffffffffffffffffffffffffffffffffff82169050919050565b60006103be82610393565b9050919050565b6103ce816103b3565b81146103d957600080fd5b50565b6000813590506103eb816103c5565b92915050565b60006020828403121561040757610406610389565b5b6000610415848285016103dc565b91505092915050565b600080fd5b600080fd5b6000601f19601f8301169050919050565b7f4e487b7100000000000000000000000000000000000000000000000000000000600052604160045260246000fd5b61047182610428565b810181811067ffffffffffffffff821117156104905761048f610439565b5b80604052505050565b60006104a361037f565b90506104af8282610468565b919050565b600067ffffffffffffffff8211156104cf576104ce610439565b5b6104d882610428565b9050602081019050919050565b82818337600083830152505050565b6000610507610502846104b4565b610499565b90508281526020810184848401111561052357610522610423565b5b61052e8482856104e5565b509392505050565b600082601f83011261054b5761054a61041e565b5b813561055b8482602086016104f4565b91505092915050565b6000819050919050565b61057781610564565b811461058257600080fd5b50565b6000813590506105948161056e565b92915050565b600080600080600060a086880312156105b6576105b5610389565b5b600086013567ffffffffffffffff8111156105d4576105d361038e565b5b6105e088828901610536565b955050602086013567ffffffffffffffff8111156106015761060061038e565b5b61060d88828901610536565b945050604061061e888289016103dc565b935050606061062f888289016103dc565b925050608061064088828901610585565b9150509295509295909350565b610656816103b3565b82525050565b6000602082019050610671600083018461064d565b92915050565b6000819050919050565b600061069c61069761069284610393565b610677565b610393565b9050919050565b60006106ae82610681565b9050919050565b60006106c0826106a3565b9050919050565b6106d0816106b5565b82525050565b6000819050919050565b600060ff82169050919050565b60006107086107036106fe846106d6565b610677565b6106e0565b9050919050565b610718816106ed565b82525050565b600081519050919050565b600082825260208201905092915050565b60005b8381101561075857808201518184015260208101905061073d565b83811115610767576000848401525b50505050565b60006107788261071e565b6107828185610729565b935061079281856020860161073a565b61079b81610428565b840191505092915050565b60006080820190506107bb60008301876106c7565b6107c8602083018661070f565b81810360408301526107da818561076d565b905081810360608301526107ee818461076d565b905095945050505050565b61080281610564565b82525050565b600081519050919050565b600082825260208201905092915050565b600061082f82610808565b6108398185610813565b935061084981856020860161073a565b61085281610428565b840191505092915050565b6000606082019050610872600083018661064d565b61087f60208301856107f9565b81810360408301526108918184610824565b905094935050505056fea26469706673582212209557417dc7aa4ed30c5d888bc550ebe580b379492f45787b7a0d793939b19be864736f6c634300080f0033",
  "immutableReferences": {},
  "source": "// SPDX-License-Identifier: AGPLv3\npragma solidity ^0.8.0;\n\nimport {SuperTokenBase} from \"./base/SuperTokenBase.sol\";\n\n/// @title Minimal Native Super Token\n/// @author jtriley.eth\n/// @notice Pre-minted supply. This is includes no custom logic. Used in `NativeSuperTokenDeployer`\ncontract NativeSuperToken is SuperTokenBase {\n\n\t/// @dev Upgrades the super token with the factory, then initializes.\n\t/// @param name super token name\n\t/// @param symbol super token symbol\n\t/// @param factory super token factory for initialization\n\t/// @param receiver Receiver of pre-mint\n\t/// @param initialSupply Initial token supply to pre-mint\n    function initialize(\n        string memory name,\n        string memory symbol,\n        address factory,\n        address receiver,\n        uint256 initialSupply\n    ) external {\n        _initialize(name, symbol, factory);\n        _mint(receiver, initialSupply, \"\");\n    }\n\n}\n",
  "sourcePath": "/home/bholagabbar/WebstormProjects/airstreem-api/contracts/NativeSuperToken.sol",
  "compiler": {
    "name": "solc",
    "version": "0.8.15+commit.e14f2714.Emscripten.clang"
  },
  "schemaVersion": "3.4.7",
  "updatedAt": "2022-06-26T00:36:56.074Z",
  "networkType": "ethereum",
  "devdoc": {
    "author": "jtriley.eth",
    "kind": "dev",
    "methods": {
      "initialize(string,string,address,address,uint256)": {
        "details": "Upgrades the super token with the factory, then initializes.",
        "params": {
          "factory": "super token factory for initialization",
          "initialSupply": "Initial token supply to pre-mint",
          "name": "super token name",
          "receiver": "Receiver of pre-mint",
          "symbol": "super token symbol"
        }
      },
      "initializeProxy(address)": {
        "details": "Called by the SuperTokenFactory contract on upgrade",
        "params": {
          "initialAddress": "logic contract address"
        }
      }
    },
    "title": "Minimal Native Super Token",
    "version": 1
  },
  "userdoc": {
    "errors": {
      "Initialized()": [
        {
          "notice": "Thrown when the logic contract has been set"
        }
      ],
      "ZeroAddress()": [
        {
          "notice": "Thrown when the logic contract address is zero"
        }
      ]
    },
    "kind": "user",
    "methods": {
      "initializeProxy(address)": {
        "notice": "Stores the logic contract address only once."
      }
    },
    "notice": "Pre-minted supply. This is includes no custom logic. Used in `NativeSuperTokenDeployer`",
    "version": 1
  }
}