{
  "contractName": "UUPSProxy",
  "abi": [
    {
      "inputs": [],
      "name": "Initialized",
      "type": "error"
    },
    {
      "inputs": [],
      "name": "ZeroAddress",
      "type": "error"
    },
    {
      "stateMutability": "payable",
      "type": "fallback"
    },
    {
      "stateMutability": "payable",
      "type": "receive"
    },
    {
      "inputs": [
        {
          "internalType": "address",
          "name": "initialAddress",
          "type": "address"
        }
      ],
      "name": "initializeProxy",
      "outputs": [],
      "stateMutability": "nonpayable",
      "type": "function"
    }
  ],
  "bytecode": "0x608060405234801561001057600080fd5b5061028e806100206000396000f3fe6080604052600436106100225760003560e01c80634a0687ef1461003b57610031565b366100315761002f610064565b005b610039610064565b005b34801561004757600080fd5b50610062600480360381019061005d919061022b565b61007e565b005b61006c610177565b61007c610077610179565b6101a2565b565b600073ffffffffffffffffffffffffffffffffffffffff168173ffffffffffffffffffffffffffffffffffffffff16036100e4576040517fd92e233d00000000000000000000000000000000000000000000000000000000815260040160405180910390fd5b600073ffffffffffffffffffffffffffffffffffffffff16610104610179565b73ffffffffffffffffffffffffffffffffffffffff1614610151576040517f5daa87a000000000000000000000000000000000000000000000000000000000815260040160405180910390fd5b807f360894a13ba1a3210667c828492db98dca3e2076cc3735a920a3ca505d382bbc5550565b565b60007f360894a13ba1a3210667c828492db98dca3e2076cc3735a920a3ca505d382bbc54905090565b3660008037600080366000845af43d6000803e80600081146101c3573d6000f35b3d6000fd5b600080fd5b600073ffffffffffffffffffffffffffffffffffffffff82169050919050565b60006101f8826101cd565b9050919050565b610208816101ed565b811461021357600080fd5b50565b600081359050610225816101ff565b92915050565b600060208284031215610241576102406101c8565b5b600061024f84828501610216565b9150509291505056fea264697066735822122095bd8080fc40c4ba646586791102286da0971f6a470146f7f87a9e8f2b59f35064736f6c634300080f0033",
  "immutableReferences": {},
  "source": "// SPDX-License-Identifier: AGPLv3\npragma solidity ^0.8.0;\n\nimport {Proxy} from \"@openzeppelin/contracts/proxy/Proxy.sol\";\n\n/// @title UUPS Proxy implementation contract\n/// @author jtriley.eth\n/// @notice Stores the logic contract's address at the _IMPLEMENTATION_SLOT\n/// @dev `initializeProxy(address)` is called by the Super Token Factory\n/// The call to the factory should be in the same transaction to avoid being\n/// front run\ncontract UUPSProxy is Proxy {\n    /// @notice Thrown when the logic contract address is zero\n    error ZeroAddress();\n\n    /// @notice Thrown when the logic contract has been set\n    error Initialized();\n\n    /// @notice Precomputed from the following for gas savings\n    /// bytes32(uint256(keccak256(\"eip1967.proxy.implementation\") - 1));\n    bytes32 internal constant _IMPLEMENTATION_SLOT =\n    0x360894a13ba1a3210667c828492db98dca3e2076cc3735a920a3ca505d382bbc;\n\n    /// @notice Stores the logic contract address only once.\n    /// @dev Called by the SuperTokenFactory contract on upgrade\n    /// @param initialAddress logic contract address\n    function initializeProxy(address initialAddress) external {\n        if (initialAddress == address(0)) revert ZeroAddress();\n        if (_implementation() != address(0)) revert Initialized();\n        assembly {\n            sstore(_IMPLEMENTATION_SLOT, initialAddress)\n        }\n    }\n\n    /// @notice Reads logic contract from precomputed slot\n    /// @return impl Logic contract address\n    function _implementation()\n    internal\n    view\n    virtual\n    override\n    returns (address impl)\n    {\n        assembly {\n            impl := sload(_IMPLEMENTATION_SLOT)\n        }\n    }\n}",
  "sourcePath": "/home/bholagabbar/WebstormProjects/airstreem-api/contracts/utils/UUPSProxy.sol",
  "compiler": {
    "name": "solc",
    "version": "0.8.15+commit.e14f2714.Emscripten.clang"
  },
  "schemaVersion": "3.4.7",
  "updatedAt": "2022-06-26T00:08:16.693Z",
  "devdoc": {
    "author": "jtriley.eth",
    "details": "`initializeProxy(address)` is called by the Super Token Factory The call to the factory should be in the same transaction to avoid being front run",
    "kind": "dev",
    "methods": {
      "initializeProxy(address)": {
        "details": "Called by the SuperTokenFactory contract on upgrade",
        "params": {
          "initialAddress": "logic contract address"
        }
      }
    },
    "title": "UUPS Proxy implementation contract",
    "version": 1
  },
  "userdoc": {
    "errors": {
      "Initialized()": [
        {
          "notice": "Thrown when the logic contract has been set"
        }
      ],
      "ZeroAddress()": [
        {
          "notice": "Thrown when the logic contract address is zero"
        }
      ]
    },
    "kind": "user",
    "methods": {
      "initializeProxy(address)": {
        "notice": "Stores the logic contract address only once."
      }
    },
    "notice": "Stores the logic contract's address at the _IMPLEMENTATION_SLOT",
    "version": 1
  }
}